{
  "_format": "hh-sol-artifact-1",
  "contractName": "MainContract",
  "sourceName": "contracts/MainContract.sol",
  "abi": [
    {
      "inputs": [
        {
          "internalType": "address",
          "name": "tokenErc20",
          "type": "address"
        },
        {
          "internalType": "address",
          "name": "tokenErc721",
          "type": "address"
        }
      ],
      "stateMutability": "nonpayable",
      "type": "constructor"
    },
    {
      "anonymous": false,
      "inputs": [
        {
          "indexed": true,
          "internalType": "address",
          "name": "from",
          "type": "address"
        },
        {
          "indexed": true,
          "internalType": "address",
          "name": "to",
          "type": "address"
        },
        {
          "indexed": false,
          "internalType": "uint256",
          "name": "amount",
          "type": "uint256"
        }
      ],
      "name": "ClaimReward",
      "type": "event"
    },
    {
      "anonymous": false,
      "inputs": [
        {
          "indexed": true,
          "internalType": "address",
          "name": "from",
          "type": "address"
        },
        {
          "indexed": true,
          "internalType": "address",
          "name": "to",
          "type": "address"
        },
        {
          "indexed": true,
          "internalType": "uint256",
          "name": "NFTId",
          "type": "uint256"
        }
      ],
      "name": "DepositNFT",
      "type": "event"
    },
    {
      "anonymous": false,
      "inputs": [
        {
          "indexed": true,
          "internalType": "address",
          "name": "from",
          "type": "address"
        },
        {
          "indexed": true,
          "internalType": "address",
          "name": "to",
          "type": "address"
        },
        {
          "indexed": false,
          "internalType": "uint256",
          "name": "amount",
          "type": "uint256"
        }
      ],
      "name": "DepositToken",
      "type": "event"
    },
    {
      "anonymous": false,
      "inputs": [
        {
          "indexed": true,
          "internalType": "address",
          "name": "from",
          "type": "address"
        },
        {
          "indexed": true,
          "internalType": "address",
          "name": "to",
          "type": "address"
        },
        {
          "indexed": false,
          "internalType": "uint256",
          "name": "amount",
          "type": "uint256"
        }
      ],
      "name": "FaucetERC20",
      "type": "event"
    },
    {
      "anonymous": false,
      "inputs": [
        {
          "indexed": true,
          "internalType": "address",
          "name": "from",
          "type": "address"
        },
        {
          "indexed": true,
          "internalType": "address",
          "name": "to",
          "type": "address"
        },
        {
          "indexed": true,
          "internalType": "uint256",
          "name": "NFTId",
          "type": "uint256"
        }
      ],
      "name": "MintNFT",
      "type": "event"
    },
    {
      "anonymous": false,
      "inputs": [
        {
          "indexed": true,
          "internalType": "address",
          "name": "operator",
          "type": "address"
        },
        {
          "indexed": true,
          "internalType": "address",
          "name": "from",
          "type": "address"
        },
        {
          "indexed": true,
          "internalType": "uint256",
          "name": "tokenId",
          "type": "uint256"
        },
        {
          "indexed": false,
          "internalType": "bytes",
          "name": "data",
          "type": "bytes"
        }
      ],
      "name": "NFTReceived",
      "type": "event"
    },
    {
      "anonymous": false,
      "inputs": [
        {
          "indexed": true,
          "internalType": "address",
          "name": "previousOwner",
          "type": "address"
        },
        {
          "indexed": true,
          "internalType": "address",
          "name": "newOwner",
          "type": "address"
        }
      ],
      "name": "OwnershipTransferred",
      "type": "event"
    },
    {
      "anonymous": false,
      "inputs": [
        {
          "indexed": true,
          "internalType": "address",
          "name": "from",
          "type": "address"
        },
        {
          "indexed": false,
          "internalType": "uint8",
          "name": "APR",
          "type": "uint8"
        }
      ],
      "name": "SetAPR",
      "type": "event"
    },
    {
      "anonymous": false,
      "inputs": [
        {
          "indexed": true,
          "internalType": "address",
          "name": "from",
          "type": "address"
        },
        {
          "indexed": true,
          "internalType": "address",
          "name": "to",
          "type": "address"
        },
        {
          "indexed": false,
          "internalType": "uint256",
          "name": "amount",
          "type": "uint256"
        }
      ],
      "name": "TransferERC20",
      "type": "event"
    },
    {
      "anonymous": false,
      "inputs": [
        {
          "indexed": true,
          "internalType": "address",
          "name": "from",
          "type": "address"
        },
        {
          "indexed": true,
          "internalType": "address",
          "name": "to",
          "type": "address"
        },
        {
          "indexed": true,
          "internalType": "uint256",
          "name": "NFTId",
          "type": "uint256"
        }
      ],
      "name": "TransferNFT",
      "type": "event"
    },
    {
      "anonymous": false,
      "inputs": [
        {
          "indexed": true,
          "internalType": "address",
          "name": "from",
          "type": "address"
        },
        {
          "indexed": true,
          "internalType": "address",
          "name": "to",
          "type": "address"
        },
        {
          "indexed": false,
          "internalType": "uint256",
          "name": "amount",
          "type": "uint256"
        }
      ],
      "name": "WithdrawERC20",
      "type": "event"
    },
    {
      "anonymous": false,
      "inputs": [
        {
          "indexed": true,
          "internalType": "address",
          "name": "from",
          "type": "address"
        },
        {
          "indexed": true,
          "internalType": "address",
          "name": "to",
          "type": "address"
        },
        {
          "indexed": true,
          "internalType": "uint256",
          "name": "NFTId",
          "type": "uint256"
        }
      ],
      "name": "WithdrawNFT",
      "type": "event"
    },
    {
      "inputs": [],
      "name": "claimReward",
      "outputs": [],
      "stateMutability": "nonpayable",
      "type": "function"
    },
    {
      "inputs": [],
      "name": "deployer",
      "outputs": [
        {
          "internalType": "address",
          "name": "",
          "type": "address"
        }
      ],
      "stateMutability": "view",
      "type": "function"
    },
    {
      "inputs": [
        {
          "internalType": "uint256[]",
          "name": "tokenIds",
          "type": "uint256[]"
        }
      ],
      "name": "depositNFT",
      "outputs": [],
      "stateMutability": "nonpayable",
      "type": "function"
    },
    {
      "inputs": [
        {
          "internalType": "address",
          "name": "account",
          "type": "address"
        }
      ],
      "name": "depositOf",
      "outputs": [
        {
          "components": [
            {
              "internalType": "uint8",
              "name": "APRIncrement",
              "type": "uint8"
            },
            {
              "internalType": "uint256",
              "name": "amount",
              "type": "uint256"
            },
            {
              "internalType": "uint256",
              "name": "accumulatedInterest",
              "type": "uint256"
            },
            {
              "internalType": "uint256",
              "name": "lastInterestTime",
              "type": "uint256"
            },
            {
              "internalType": "uint256",
              "name": "depositTime",
              "type": "uint256"
            },
            {
              "internalType": "uint256",
              "name": "depositNFTTime",
              "type": "uint256"
            },
            {
              "internalType": "uint256",
              "name": "lockTime",
              "type": "uint256"
            },
            {
              "internalType": "bool",
              "name": "isReceivedNFT",
              "type": "bool"
            }
          ],
          "internalType": "struct MainContract.Deposit",
          "name": "",
          "type": "tuple"
        }
      ],
      "stateMutability": "view",
      "type": "function"
    },
    {
      "inputs": [
        {
          "internalType": "address",
          "name": "account",
          "type": "address"
        }
      ],
      "name": "depositOfNFT",
      "outputs": [
        {
          "internalType": "uint256[]",
          "name": "",
          "type": "uint256[]"
        }
      ],
      "stateMutability": "view",
      "type": "function"
    },
    {
      "inputs": [
        {
          "internalType": "uint256",
          "name": "amount",
          "type": "uint256"
        }
      ],
      "name": "depositToken",
      "outputs": [],
      "stateMutability": "nonpayable",
      "type": "function"
    },
    {
      "inputs": [],
      "name": "getAPR",
      "outputs": [
        {
          "internalType": "uint256",
          "name": "",
          "type": "uint256"
        }
      ],
      "stateMutability": "view",
      "type": "function"
    },
    {
      "inputs": [
        {
          "internalType": "address",
          "name": "user",
          "type": "address"
        }
      ],
      "name": "getAccumulatedInterest",
      "outputs": [
        {
          "internalType": "uint256",
          "name": "",
          "type": "uint256"
        }
      ],
      "stateMutability": "view",
      "type": "function"
    },
    {
      "inputs": [],
      "name": "getCurrentTime",
      "outputs": [
        {
          "internalType": "uint256",
          "name": "",
          "type": "uint256"
        }
      ],
      "stateMutability": "view",
      "type": "function"
    },
    {
      "inputs": [],
      "name": "getDeployer",
      "outputs": [
        {
          "internalType": "address",
          "name": "",
          "type": "address"
        }
      ],
      "stateMutability": "view",
      "type": "function"
    },
    {
      "inputs": [
        {
          "internalType": "address",
          "name": "user",
          "type": "address"
        }
      ],
      "name": "getInterest",
      "outputs": [
        {
          "internalType": "uint256",
          "name": "",
          "type": "uint256"
        }
      ],
      "stateMutability": "view",
      "type": "function"
    },
    {
      "inputs": [
        {
          "internalType": "address",
          "name": "operator",
          "type": "address"
        },
        {
          "internalType": "address",
          "name": "from",
          "type": "address"
        },
        {
          "internalType": "uint256",
          "name": "tokenId",
          "type": "uint256"
        },
        {
          "internalType": "bytes",
          "name": "data",
          "type": "bytes"
        }
      ],
      "name": "onERC721Received",
      "outputs": [
        {
          "internalType": "bytes4",
          "name": "",
          "type": "bytes4"
        }
      ],
      "stateMutability": "nonpayable",
      "type": "function"
    },
    {
      "inputs": [],
      "name": "owner",
      "outputs": [
        {
          "internalType": "address",
          "name": "",
          "type": "address"
        }
      ],
      "stateMutability": "view",
      "type": "function"
    },
    {
      "inputs": [],
      "name": "renounceOwnership",
      "outputs": [],
      "stateMutability": "nonpayable",
      "type": "function"
    },
    {
      "inputs": [
        {
          "internalType": "uint8",
          "name": "APR",
          "type": "uint8"
        }
      ],
      "name": "setAPR",
      "outputs": [],
      "stateMutability": "nonpayable",
      "type": "function"
    },
    {
      "inputs": [
        {
          "internalType": "address",
          "name": "to",
          "type": "address"
        },
        {
          "internalType": "uint256",
          "name": "amount",
          "type": "uint256"
        }
      ],
      "name": "transferERC20",
      "outputs": [],
      "stateMutability": "nonpayable",
      "type": "function"
    },
    {
      "inputs": [
        {
          "internalType": "address",
          "name": "to",
          "type": "address"
        },
        {
          "internalType": "uint256[]",
          "name": "tokenIds",
          "type": "uint256[]"
        }
      ],
      "name": "transferNFT",
      "outputs": [],
      "stateMutability": "nonpayable",
      "type": "function"
    },
    {
      "inputs": [
        {
          "internalType": "address",
          "name": "newOwner",
          "type": "address"
        }
      ],
      "name": "transferOwnership",
      "outputs": [],
      "stateMutability": "nonpayable",
      "type": "function"
    },
    {
      "inputs": [
        {
          "internalType": "address",
          "name": "user",
          "type": "address"
        }
      ],
      "name": "updateInterest",
      "outputs": [],
      "stateMutability": "nonpayable",
      "type": "function"
    },
    {
      "inputs": [
        {
          "internalType": "uint256",
          "name": "amount",
          "type": "uint256"
        }
      ],
      "name": "withdraw",
      "outputs": [],
      "stateMutability": "nonpayable",
      "type": "function"
    },
    {
      "inputs": [
        {
          "internalType": "uint256[]",
          "name": "tokenIds",
          "type": "uint256[]"
        }
      ],
      "name": "withdrawNFT",
      "outputs": [],
      "stateMutability": "nonpayable",
      "type": "function"
    }
  ],
  "bytecode": "0x6080346100fa57601f611a4438819003918201601f19168301916001600160401b038311848410176100ff5780849260409485528339810103126100fa57610052602061004b83610115565b9201610115565b906000546040519260018060a01b0391338382167f8be0079c531659141344cd1fd0a4f28419497f9722a3daafe3b4186f6b6457e0600080a36001600160a81b0319163360ff60a01b19811691909117600160a31b1760ff60a81b1916600160a91b176000908155600155600580546001600160a01b031990811690921790556003805482169484169490941790935560048054909316911617905561191a908161012a8239f35b600080fd5b634e487b7160e01b600052604160045260246000fd5b51906001600160a01b03821682036100fa5756fe6040608081526004908136101561001557600080fd5b600091823560e01c80630a72298e14611225578063150b7a021461115757806323e3fbd51461105057806329cb924d146110355780632e1a7d4d14610e8e57806341fd17cd14610cae5780634b0b3dc7146109c75780636215be771461064e578063715018a614610606578063726305311461035257806374e44a97146105bf5780637aaa3470146105925780637b3c5da71461056d5780638da5cb5b14610545578063b88a802f14610415578063bd8d99f4146103a2578063c89d5b8b1461037f578063d5f3948814610352578063d7f3387c146102a2578063f2fde38b146101f25763f7448a311461010857600080fd5b346101ee57816003193601126101ee57610120611495565b6024359261012d33611685565b6101388415156116c0565b61016a60208560018060a01b039585898860035416928751968795869485936323b872dd60e01b85523390850161173e565b03925af19081156101e457906101879187916101b6575b50611760565b5192835216907f9b035625e569d1d2bf54830a290aefba7ab11610ba8490871dc62b86b63a895660203392a380f35b6101d7915060203d81116101dd575b6101cf818361156b565b810190611726565b38610181565b503d6101c5565b82513d88823e3d90fd5b8280fd5b50346101ee5760203660031901126101ee5761020c611495565b906102156114ab565b6001600160a01b0391821692831561025057505082546001600160a01b0319811683178455166000805160206118c58339815191528380a380f35b906020608492519162461bcd60e51b8352820152602660248201527f4f776e61626c653a206e6577206f776e657220697320746865207a65726f206160448201526564647265737360d01b6064820152fd5b82843461034f576020908160031936011261034f5782906001600160a01b036102c9611495565b16815260078352818120908251808584549182815201908194845286842090845b81811061033b575050508161030091038261156b565b83519485948186019282875251809352850193925b82811061032457505050500390f35b835185528695509381019392810192600101610315565b8254845292880192600192830192016102ea565b80fd5b50503461037b578160031936011261037b5760055490516001600160a01b039091168152602090f35b5080fd5b50503461037b578160031936011261037b5760ff6020925460a01c169051908152f35b50346101ee5760203660031901126101ee57359060ff821691828103610411576103ca6114ab565b835460ff60a01b191660a09190911b60ff60a01b161783555190815233907f40d7fcce824272916760b9aafa2e29febdc72f6e8ea2d3b52bb2413ebad9017190602090a280f35b8380fd5b5082903461037b578160031936011261037b5761043133611685565b3382526020600681526002848420019182549081156104ee578285969261047a9260018060a01b03600354169088865180968195829463a9059cbb60e01b84523390840161179e565b03925af19081156104e457906104969186916104c75750611760565b825490519081527f7e77f685b38c861064cb08f2776eb5dfd3c82f652ed9f21221b8c53b75628e5133923092a35580f35b6104de9150843d86116101dd576101cf818361156b565b87610181565b82513d87823e3d90fd5b855162461bcd60e51b8152908101839052602b60248201527f416363756d756c6174656420696e746572657374206d7573742062652067726560448201526a061746572207468616e20360ac1b6064820152608490fd5b50503461037b578160031936011261037b57905490516001600160a01b039091168152602090f35b833461034f57602036600319011261034f5761058f61058a611495565b611685565b80f35b50503461037b57602036600319011261037b576020906105b86105b3611495565b6115c2565b9051908152f35b50503461037b57602036600319011261037b576105b860209260026105fe846105e6611495565b6001600160a01b0381168552600688529320926115c2565b910154611503565b833461034f578060031936011261034f5761061f6114ab565b80546001600160a01b03198116825581906001600160a01b03166000805160206118c58339815191528280a380f35b50346101ee57602091826003193601126104115781359161066e33611685565b6106798315156116c0565b6003548251636eb1769f60e11b81526001600160a01b0392918316908681806106a5303383890161170c565b0381855afa9081156109bd579086918991610988575b501061094c5785845180926323b872dd60e01b8252818a816106e18b30338b850161173e565b03925af190811561086457906106fd9188916109355750611760565b338652600691828652600184882001610717868254611503565b905533875282865242828589200155818488200154603c81018091116109225790879133835284885284868420015560ff6007868420015416158061086e575b6107ab575b5050503385528352600381852001541561079e575b519081527f4b3f81827ede20c81afbf1bb77b954afcdcae24d391d99042310cb1d9210dd5730923392a380f35b4260038286200155610771565b825416600254813b156101ee5782916107d99187519485809481936340c10f1960e01b8352338a840161179e565b03925af1801561086457610855575b50338652818552600783872001600160ff19825416179055600254908133887fb5b3a7981dde7fe20443bd6dcd881600a7c12bdc69f555088fc9d764178e3fa48180a460018201809211610842575060025538858161075c565b634e487b7160e01b875260119052602486fd5b61085e90611526565b386107e8565b84513d89823e3d90fd5b5090846001912001548287836003541687519283809263313ce56760e01b82525afa80156109185789906108dc575b60ff915016604d81116108c957600a0a90620f424091808302928304036108c957908892911015610757565b634e487b7160e01b895260118452602489fd5b508781813d8311610911575b6108f2818361156b565b8101031261090d575160ff8116810361090d5760ff9061089d565b8880fd5b503d6108e8565b86513d8b823e3d90fd5b634e487b7160e01b885260118352602488fd5b6101d79150873d89116101dd576101cf818361156b565b835162461bcd60e51b81528083018790526016602482015275496e73756666696369656e7420616c6c6f77616e636560501b6044820152606490fd5b809250888092503d83116109b6575b6109a1818361156b565b810103126109b257859051386106bb565b8780fd5b503d610997565b85513d8a823e3d90fd5b5090346101ee57602090816003193601126104115782356001600160401b038111610caa576109f99036908501611460565b9091610a0433611685565b3386526007918285528187205415610c6d57610a218115156116c0565b338752828552818720548111610c1f5792919386935b808510610a42578780f35b610a528582869798999a96611822565b8854903595906001600160a01b0316803b15610c1b578587610a8d928c838951809681958294632142170760e11b845233903090850161173e565b03925af18015610c1157610c02575b5033855287835283852097855b895480821015610bf2578890610abf838d6118ac565b929054600393841b1c14610add575050610ad890611813565b610aa9565b9092979b9a9160009a95969a9994991991828101908111610bdf5790610b16610b09610b3193866118ac565b905490871b1c91856118ac565b90919082549060031b600019811b9283911b16911916179055565b81548015610bcc57810192610b4684846118ac565b81939154921b1b19169055555b60ff808a5460a81c16338b5260068952858b209182549181831603818111610bb95760ff199092169116179055610bb0919033307fe7a9bbc68ffc5ef55c4992454bd401d15a750ba00be3c3f868b16d92d8a0d30e8c80a4611813565b93929490610a37565b634e487b7160e01b8d5260118c5260248dfd5b634e487b7160e01b8d5260318c5260248dfd5b634e487b7160e01b8e5260118d5260248efd5b5050949897509495909195610b53565b610c0b90611526565b38610a9c565b85513d88823e3d90fd5b8580fd5b815162461bcd60e51b8152808701869052602260248201527f496e76616c6964206e756d626572206f66204e46547320746f20776974686472604482015261617760f01b6064820152608490fd5b815162461bcd60e51b81528087018690526017602482015276596f7520646f6e2774206861766520616e79204e46547360481b6044820152606490fd5b8480fd5b50346101ee57816003193601126101ee57610cc7611495565b6024919082356001600160401b038111610c1b57610ce89036908401611460565b939091610cf433611685565b610cff8515156116c0565b8354865163e985e9c560e01b81526001600160a01b039591602091908290829089168180610d303033838b0161170c565b03915afa8015610e8457610d4e918b91610e67575b509795976117b9565b82861694895b818110610d5f578a80f35b610d6a81838b611822565b359088855416918c8c516331a9108f60e11b8152828882015286818b81885afa908115610e5d57610da59291610e30575b508b163314611867565b8c833b1561034f5781610dd294898f8a85915198899586948593632142170760e11b85523390850161173e565b03925af1928315610e2657610e1293610e17575b5088337fa64cdec004d2859ac7547f4ed3252f53d0fa0b8dcbcc93a47894eee072714b628f80a4611813565b610d54565b610e2090611526565b38610de6565b8c513d8f823e3d90fd5b610e509150873d8911610e56575b610e48818361156b565b810190611848565b38610d9b565b503d610e3e565b8e513d84823e3d90fd5b610e7e9150833d85116101dd576101cf818361156b565b38610d45565b89513d8c823e3d90fd5b50346101ee576020918260031936011261041157813591610eae33611685565b338552600684528185209060068201544210610ff857610ecf8415156116c0565b33865260068552836001848820015410610fb757600354835163a9059cbb60e01b815290869082906001600160a01b0316818a81610f108b338a840161179e565b03925af1908115610864578791610f9a575b5015610f665750600101610f3783825461158e565b9055519081527f33c35f9541201e342d5e7467016e65a0a06182eb12a5f17103f71cec95b6cb2933923092a380f35b825162461bcd60e51b8152908101859052600e60248201526d151c985b99995c8819985a5b195960921b6044820152606490fd5b610fb19150863d88116101dd576101cf818361156b565b38610f22565b606490858085519262461bcd60e51b845283015260248201527f496e73756666696369656e742062616c616e636520746f2077697468647261776044820152fd5b825162461bcd60e51b81529081018590526017602482015276151bdad95b9cc8185c99481cdd1a5b1b081b1bd8dad959604a1b6044820152606490fd5b50503461037b578160031936011261037b5760209051428152f35b50346101ee5760203660031901126101ee57816101009361106f611495565b8160e0845161107d8161154f565b82815282602082015282868201528260608201528260808201528260a08201528260c0820152015260018060a01b031681526006602052208251916110c18361154f565b60ff825416938484526001830154916020850192835260028401549180860192835260038501549160608701928352850154926080870193845260058601549460a0880195865260e060ff600760068a01549960c08c019a8b5201541698019715158852825198895251602089015251908701525160608601525160808501525160a08401525160c083015251151560e0820152f35b50346101ee5760803660031901126101ee57611171611495565b906024356001600160a01b038181169291839003610c1b576001600160401b039160643591908383116109b257366023840112156109b25782013592831161122157366024848401011161122157857f1d823cdc8f0514a95b53538df2d2f3deaf98d1c534c6e750daa593173c27f8f0926024926020998684519586948d8652828e8701520185850137828701840152604435971694601f01601f19168101030190a451630a85bd0160e11b8152f35b8680fd5b5090346101ee57602090816003193601126104115782356001600160401b038111610caa576112579036908501611460565b91909261126333611685565b61126e8315156116c0565b8454825163e985e9c560e01b81526001600160a01b039491839082908716818061129b3033838f0161170c565b03915afa90811561145657906112b8918991611439575b506117b9565b865b8181106112c5578780f35b6112d0818388611822565b35858854168551906331a9108f60e11b8252828a83015260249186818481855afa90811561142f579061130e918d91611412575b5089163314611867565b8a813b1561034f578361133a928c838b51809681958294632142170760e11b845230903390850161173e565b03925af18015611408576113f9575b50338a5260078552858a20805491600160401b8310156113e8575082610b168361137d9360016113e39897960181556118ac565b60ff808b5460a81c1690338c52600691828852888d20916113a283549282841661159b565b169060ff1916179055338b528552426005878c20015530337fc7e8b1bdbecdc8a549557efb2a2ab715cff51630caead31610000019e61dfa4b8c80a4611813565b6112ba565b634e487b7160e01b8c5260418b528bfd5b61140290611526565b38611349565b87513d8d823e3d90fd5b6114299150883d8a11610e5657610e48818361156b565b38611304565b88513d8e823e3d90fd5b6114509150843d86116101dd576101cf818361156b565b386112b2565b84513d8a823e3d90fd5b9181601f84011215611490578235916001600160401b038311611490576020808501948460051b01011161149057565b600080fd5b600435906001600160a01b038216820361149057565b6000546001600160a01b031633036114bf57565b606460405162461bcd60e51b815260206004820152602060248201527f4f776e61626c653a2063616c6c6572206973206e6f7420746865206f776e65726044820152fd5b9190820180921161151057565b634e487b7160e01b600052601160045260246000fd5b6001600160401b03811161153957604052565b634e487b7160e01b600052604160045260246000fd5b61010081019081106001600160401b0382111761153957604052565b601f909101601f19168101906001600160401b0382119082101761153957604052565b9190820391821161151057565b9060ff8091169116019060ff821161151057565b8181029291811591840414171561151057565b60018060a01b0316600052600660205260406000206040516115e38161154f565b60ff8254168152600182015460208201908082526002840154604084015260ff600760038601549586606087015260048101546080870152600581015460a0870152600681015460c0870152015416151560e084015261164557505050600090565b61167c6116819260ff61167561166063bbf81e00974261158e565b945192828060005460a01c169151169061159b565b16906115af565b6115af565b0490565b6001600160a01b0381166000908152600660205260409020906116a7906115c2565b6116b660028301918254611503565b9055600342910155565b156116c757565b60405162461bcd60e51b815260206004820152601d60248201527f416d6f756e74206d7573742062652067726561746572207468616e20300000006044820152606490fd5b6001600160a01b0391821681529116602082015260400190565b90816020910312611490575180151581036114905790565b6001600160a01b03918216815291166020820152604081019190915260600190565b1561176757565b60405162461bcd60e51b815260206004820152600f60248201526e151c985b9cd9995c8819985a5b1959608a1b6044820152606490fd5b6001600160a01b039091168152602081019190915260400190565b156117c057565b60405162461bcd60e51b815260206004820152602560248201527f436f6e7472616374206973206e6f7420617070726f76656420666f7220616c6c604482015264204e46547360d81b6064820152608490fd5b60001981146115105760010190565b91908110156118325760051b0190565b634e487b7160e01b600052603260045260246000fd5b9081602091031261149057516001600160a01b03811681036114905790565b1561186e57565b60405162461bcd60e51b8152602060048201526016602482015275165bdd48191bdb89dd081bdddb881d1a1a5cc813919560521b6044820152606490fd5b8054821015611832576000526020600020019060009056fe8be0079c531659141344cd1fd0a4f28419497f9722a3daafe3b4186f6b6457e0a2646970667358221220c9d68d04df41bfc54c63b16729ece667a98f0c7ff6caedcd92160c2e0fad8c3564736f6c63430008110033",
  "linkReferences": {},
  "deployedLinkReferences": {}
}