{
  "_format": "hh-sol-artifact-1",
  "contractName": "TokenERC20",
  "sourceName": "contracts/TokenERC20.sol",
  "abi": [
    {
      "inputs": [
        {
          "internalType": "string",
          "name": "name",
          "type": "string"
        },
        {
          "internalType": "string",
          "name": "symbol",
          "type": "string"
        }
      ],
      "stateMutability": "nonpayable",
      "type": "constructor"
    },
    {
      "anonymous": false,
      "inputs": [
        {
          "indexed": true,
          "internalType": "address",
          "name": "owner",
          "type": "address"
        },
        {
          "indexed": true,
          "internalType": "address",
          "name": "spender",
          "type": "address"
        },
        {
          "indexed": false,
          "internalType": "uint256",
          "name": "value",
          "type": "uint256"
        }
      ],
      "name": "Approval",
      "type": "event"
    },
    {
      "anonymous": false,
      "inputs": [
        {
          "indexed": true,
          "internalType": "address",
          "name": "previousOwner",
          "type": "address"
        },
        {
          "indexed": true,
          "internalType": "address",
          "name": "newOwner",
          "type": "address"
        }
      ],
      "name": "OwnershipTransferred",
      "type": "event"
    },
    {
      "anonymous": false,
      "inputs": [
        {
          "indexed": true,
          "internalType": "address",
          "name": "from",
          "type": "address"
        },
        {
          "indexed": true,
          "internalType": "address",
          "name": "to",
          "type": "address"
        },
        {
          "indexed": false,
          "internalType": "uint256",
          "name": "value",
          "type": "uint256"
        }
      ],
      "name": "Transfer",
      "type": "event"
    },
    {
      "inputs": [
        {
          "internalType": "address",
          "name": "owner",
          "type": "address"
        },
        {
          "internalType": "address",
          "name": "spender",
          "type": "address"
        }
      ],
      "name": "allowance",
      "outputs": [
        {
          "internalType": "uint256",
          "name": "",
          "type": "uint256"
        }
      ],
      "stateMutability": "view",
      "type": "function"
    },
    {
      "inputs": [
        {
          "internalType": "address",
          "name": "spender",
          "type": "address"
        },
        {
          "internalType": "uint256",
          "name": "amount",
          "type": "uint256"
        }
      ],
      "name": "approve",
      "outputs": [
        {
          "internalType": "bool",
          "name": "",
          "type": "bool"
        }
      ],
      "stateMutability": "nonpayable",
      "type": "function"
    },
    {
      "inputs": [
        {
          "internalType": "address",
          "name": "account",
          "type": "address"
        }
      ],
      "name": "balanceOf",
      "outputs": [
        {
          "internalType": "uint256",
          "name": "",
          "type": "uint256"
        }
      ],
      "stateMutability": "view",
      "type": "function"
    },
    {
      "inputs": [],
      "name": "decimals",
      "outputs": [
        {
          "internalType": "uint8",
          "name": "",
          "type": "uint8"
        }
      ],
      "stateMutability": "pure",
      "type": "function"
    },
    {
      "inputs": [
        {
          "internalType": "address",
          "name": "spender",
          "type": "address"
        },
        {
          "internalType": "uint256",
          "name": "subtractedValue",
          "type": "uint256"
        }
      ],
      "name": "decreaseAllowance",
      "outputs": [
        {
          "internalType": "bool",
          "name": "",
          "type": "bool"
        }
      ],
      "stateMutability": "nonpayable",
      "type": "function"
    },
    {
      "inputs": [
        {
          "internalType": "uint256",
          "name": "amount",
          "type": "uint256"
        }
      ],
      "name": "faucet",
      "outputs": [],
      "stateMutability": "nonpayable",
      "type": "function"
    },
    {
      "inputs": [],
      "name": "getContractBalance",
      "outputs": [
        {
          "internalType": "uint256",
          "name": "",
          "type": "uint256"
        }
      ],
      "stateMutability": "view",
      "type": "function"
    },
    {
      "inputs": [
        {
          "internalType": "address",
          "name": "user",
          "type": "address"
        }
      ],
      "name": "getFaucetBalance",
      "outputs": [
        {
          "internalType": "uint256",
          "name": "",
          "type": "uint256"
        }
      ],
      "stateMutability": "view",
      "type": "function"
    },
    {
      "inputs": [
        {
          "internalType": "address",
          "name": "spender",
          "type": "address"
        },
        {
          "internalType": "uint256",
          "name": "addedValue",
          "type": "uint256"
        }
      ],
      "name": "increaseAllowance",
      "outputs": [
        {
          "internalType": "bool",
          "name": "",
          "type": "bool"
        }
      ],
      "stateMutability": "nonpayable",
      "type": "function"
    },
    {
      "inputs": [],
      "name": "name",
      "outputs": [
        {
          "internalType": "string",
          "name": "",
          "type": "string"
        }
      ],
      "stateMutability": "view",
      "type": "function"
    },
    {
      "inputs": [],
      "name": "owner",
      "outputs": [
        {
          "internalType": "address",
          "name": "",
          "type": "address"
        }
      ],
      "stateMutability": "view",
      "type": "function"
    },
    {
      "inputs": [],
      "name": "renounceOwnership",
      "outputs": [],
      "stateMutability": "nonpayable",
      "type": "function"
    },
    {
      "inputs": [],
      "name": "symbol",
      "outputs": [
        {
          "internalType": "string",
          "name": "",
          "type": "string"
        }
      ],
      "stateMutability": "view",
      "type": "function"
    },
    {
      "inputs": [],
      "name": "totalSupply",
      "outputs": [
        {
          "internalType": "uint256",
          "name": "",
          "type": "uint256"
        }
      ],
      "stateMutability": "view",
      "type": "function"
    },
    {
      "inputs": [
        {
          "internalType": "address",
          "name": "to",
          "type": "address"
        },
        {
          "internalType": "uint256",
          "name": "amount",
          "type": "uint256"
        }
      ],
      "name": "transfer",
      "outputs": [
        {
          "internalType": "bool",
          "name": "",
          "type": "bool"
        }
      ],
      "stateMutability": "nonpayable",
      "type": "function"
    },
    {
      "inputs": [
        {
          "internalType": "address",
          "name": "from",
          "type": "address"
        },
        {
          "internalType": "address",
          "name": "to",
          "type": "address"
        },
        {
          "internalType": "uint256",
          "name": "amount",
          "type": "uint256"
        }
      ],
      "name": "transferFrom",
      "outputs": [
        {
          "internalType": "bool",
          "name": "",
          "type": "bool"
        }
      ],
      "stateMutability": "nonpayable",
      "type": "function"
    },
    {
      "inputs": [
        {
          "internalType": "address",
          "name": "newOwner",
          "type": "address"
        }
      ],
      "name": "transferOwnership",
      "outputs": [],
      "stateMutability": "nonpayable",
      "type": "function"
    }
  ],
  "bytecode": "0x60406080815234620004175762001160803803806200001e816200041c565b92833981018282820312620004175781516001600160401b03908181116200041757826200004e91850162000442565b926020928382015183811162000417576200006a920162000442565b92805191808311620003175760038054936001938486811c961680156200040c575b87871014620003f6578190601f96878111620003a0575b50879087831160011462000339576000926200032d575b505060001982841b1c191690841b1781555b8551918211620003175760049586548481811c911680156200030c575b87821014620002f757858111620002ac575b508590858411600114620002415793839491849260009562000235575b50501b92600019911b1c19161783555b60058054336001600160a01b03198216811790925585519291906001600160a01b03167f8be0079c531659141344cd1fd0a4f28419497f9722a3daafe3b4186f6b6457e0600080a33015620001f85750506002546b033b2e3c9fd0803ce800000092838201809211620001e357506000917fddf252ad1be2c89b69c2b068fc378daa952ba7f163c4a11628f55a4df523b3ef9160025530835282815284832084815401905584519384523093a351610cab9081620004b58239f35b601190634e487b7160e01b6000525260246000fd5b6064928462461bcd60e51b845283015260248201527f45524332303a206d696e7420746f20746865207a65726f2061646472657373006044820152fd5b01519350388062000118565b9190601f198416928860005284886000209460005b8a8983831062000294575050501062000279575b50505050811b01835562000128565b01519060f884600019921b161c19169055388080806200026a565b86860151895590970196948501948893500162000256565b87600052866000208680860160051c820192898710620002ed575b0160051c019085905b828110620002e0575050620000fb565b60008155018590620002d0565b92508192620002c7565b602288634e487b7160e01b6000525260246000fd5b90607f1690620000e9565b634e487b7160e01b600052604160045260246000fd5b015190503880620000ba565b90869350601f1983169185600052896000209260005b8b82821062000389575050841162000370575b505050811b018155620000cc565b015160001983861b60f8161c1916905538808062000362565b8385015186558a979095019493840193016200034f565b90915083600052876000208780850160051c8201928a8610620003ec575b918891869594930160051c01915b828110620003dc575050620000a3565b60008155859450889101620003cc565b92508192620003be565b634e487b7160e01b600052602260045260246000fd5b95607f16956200008c565b600080fd5b6040519190601f01601f191682016001600160401b038111838210176200031757604052565b919080601f84011215620004175782516001600160401b038111620003175760209062000478601f8201601f191683016200041c565b92818452828287010111620004175760005b818110620004a057508260009394955001015290565b85810183015184820184015282016200048a56fe6080604081815260048036101561001557600080fd5b600092833560e01c90816306fdde03146107fe57508063095ea7b3146107d457806318160ddd146107b557806323b872dd146106eb578063313ce567146106cf5780633528bee9146106975780633950935114610647578063579158971461047a5780636f9fb98a1461045c57806370a082311461042f578063715018a6146103e45780638da5cb5b146103bb57806395d89b41146102b9578063a457c2d714610212578063a9059cbb146101e1578063dd62ed3e146101945763f2fde38b146100de57600080fd5b34610190576020366003190112610190576100f761091e565b9061010061094f565b6001600160a01b0391821692831561013e575050600580546001600160a01b03198116841790915516600080516020610c568339815191528380a380f35b906020608492519162461bcd60e51b8352820152602660248201527f4f776e61626c653a206e6577206f776e657220697320746865207a65726f206160448201526564647265737360d01b6064820152fd5b8280fd5b5050346101dd57806003193601126101dd57806020926101b261091e565b6101ba610939565b6001600160a01b0391821683526001865283832091168252845220549051908152f35b5080fd5b5050346101dd57806003193601126101dd5760209061020b61020161091e565b60243590336109e5565b5160018152f35b5082346102b657826003193601126102b65761022c61091e565b918360243592338152600160205281812060018060a01b03861682526020522054908282106102655760208561020b8585038733610b53565b608490602086519162461bcd60e51b8352820152602560248201527f45524332303a2064656372656173656420616c6c6f77616e63652062656c6f77604482015264207a65726f60d81b6064820152fd5b80fd5b509190346101dd57816003193601126101dd57805190828454600181811c908083169283156103b1575b602093848410811461039e57838852908115610382575060011461034a575b505050829003601f01601f19168201926001600160401b0384118385101761033757508291826103339252826108d5565b0390f35b634e487b7160e01b815260418552602490fd5b919250868652828620918387935b83851061036e5750505050830101388080610302565b805488860183015293019284908201610358565b60ff1916878501525050151560051b8401019050388080610302565b634e487b7160e01b895260228a52602489fd5b91607f16916102e3565b5050346101dd57816003193601126101dd5760055490516001600160a01b039091168152602090f35b83346102b657806003193601126102b6576103fd61094f565b600580546001600160a01b0319811690915581906001600160a01b0316600080516020610c568339815191528280a380f35b5050346101dd5760203660031901126101dd5760209061045561045061091e565b6109a7565b9051908152f35b5050346101dd57816003193601126101dd57602090610455306109a7565b509034610190576020806003193601126106435782359283156106025769d3c21bcecceda10000008085116105b557338652600683526104bd85858820546109c2565b11610552573085528482528383862054106104f857509060066104f3926104e58533306109e5565b3386525283209182546109c2565b905580f35b915162461bcd60e51b815291820152603060248201527f466175636574206661696c65643a206e6f7420656e6f75676820746f6b656e7360448201526f081a5b881d1a194818dbdb9d1c9858dd60821b6064820152608490fd5b915162461bcd60e51b815291820152603960248201527f466175636574206661696c65643a20757365722068617320616c7265616479206044820152781c995858da1959081d1a19481b585e1a5b5d5b481b1a5b5a5d603a1b6064820152608490fd5b50915162461bcd60e51b815291820152602260248201527f416d6f756e74206d757374206265206c657373207468616e20312e3030302e30604482015261030360f41b6064820152608490fd5b915162461bcd60e51b815291820152601d60248201527f416d6f756e74206d7573742062652067726561746572207468616e20300000006044820152606490fd5b8380fd5b5050346101dd57806003193601126101dd5761020b60209261069061066a61091e565b338352600186528483206001600160a01b038216845286529184902054602435906109c2565b9033610b53565b5050346101dd5760203660031901126101dd5760209181906001600160a01b036106bf61091e565b1681526006845220549051908152f35b5050346101dd57816003193601126101dd576020905160128152f35b508290346101dd5760603660031901126101dd5761070761091e565b61070f610939565b91846044359460018060a01b038416815260016020528181203382526020522054906000198203610749575b60208661020b8787876109e5565b84821061077257509183916107676020969561020b95033383610b53565b91939481935061073b565b606490602087519162461bcd60e51b8352820152601d60248201527f45524332303a20696e73756666696369656e7420616c6c6f77616e63650000006044820152fd5b5050346101dd57816003193601126101dd576020906002549051908152f35b5050346101dd57806003193601126101dd5760209061020b6107f461091e565b6024359033610b53565b849150833461019057826003193601126101905782600354600181811c908083169283156108cb575b602093848410811461039e578388529081156108af575060011461087657505050829003601f01601f19168201926001600160401b0384118385101761033757508291826103339252826108d5565b91925060038652828620918387935b83851061089b5750505050830101858080610302565b805488860183015293019284908201610885565b60ff1916878501525050151560051b8401019050858080610302565b91607f1691610827565b6020808252825181830181905290939260005b82811061090a57505060409293506000838284010152601f8019910116010190565b8181018601518482016040015285016108e8565b600435906001600160a01b038216820361093457565b600080fd5b602435906001600160a01b038216820361093457565b6005546001600160a01b0316330361096357565b606460405162461bcd60e51b815260206004820152602060248201527f4f776e61626c653a2063616c6c6572206973206e6f7420746865206f776e65726044820152fd5b6001600160a01b031660009081526020819052604090205490565b919082018092116109cf57565b634e487b7160e01b600052601160045260246000fd5b6001600160a01b03908116918215610b005716918215610aaf57600082815280602052604081205491808310610a5b57604082827fddf252ad1be2c89b69c2b068fc378daa952ba7f163c4a11628f55a4df523b3ef958760209652828652038282205586815220818154019055604051908152a3565b60405162461bcd60e51b815260206004820152602660248201527f45524332303a207472616e7366657220616d6f756e7420657863656564732062604482015265616c616e636560d01b6064820152608490fd5b60405162461bcd60e51b815260206004820152602360248201527f45524332303a207472616e7366657220746f20746865207a65726f206164647260448201526265737360e81b6064820152608490fd5b60405162461bcd60e51b815260206004820152602560248201527f45524332303a207472616e736665722066726f6d20746865207a65726f206164604482015264647265737360d81b6064820152608490fd5b6001600160a01b03908116918215610c045716918215610bb45760207f8c5be1e5ebec7d5bd14f71427d1e84f3dd0314c0f7b2291e5b200ac8c7c3b925918360005260018252604060002085600052825280604060002055604051908152a3565b60405162461bcd60e51b815260206004820152602260248201527f45524332303a20617070726f766520746f20746865207a65726f206164647265604482015261737360f01b6064820152608490fd5b60405162461bcd60e51b8152602060048201526024808201527f45524332303a20617070726f76652066726f6d20746865207a65726f206164646044820152637265737360e01b6064820152608490fdfe8be0079c531659141344cd1fd0a4f28419497f9722a3daafe3b4186f6b6457e0a2646970667358221220447fb681ce6f1f8d8725ab00274854ee4b19c2e0bea2eb35ef40ba8bc7fa651464736f6c63430008110033",
  "linkReferences": {},
  "deployedLinkReferences": {}
}