{
  "_format": "hh-sol-artifact-1",
  "contractName": "TokenERC721",
  "sourceName": "contracts/TokenERC721.sol",
  "abi": [
    {
      "inputs": [
        {
          "internalType": "string",
          "name": "name",
          "type": "string"
        },
        {
          "internalType": "string",
          "name": "symbol",
          "type": "string"
        }
      ],
      "stateMutability": "nonpayable",
      "type": "constructor"
    },
    {
      "anonymous": false,
      "inputs": [
        {
          "indexed": true,
          "internalType": "address",
          "name": "owner",
          "type": "address"
        },
        {
          "indexed": true,
          "internalType": "address",
          "name": "approved",
          "type": "address"
        },
        {
          "indexed": true,
          "internalType": "uint256",
          "name": "tokenId",
          "type": "uint256"
        }
      ],
      "name": "Approval",
      "type": "event"
    },
    {
      "anonymous": false,
      "inputs": [
        {
          "indexed": true,
          "internalType": "address",
          "name": "owner",
          "type": "address"
        },
        {
          "indexed": true,
          "internalType": "address",
          "name": "operator",
          "type": "address"
        },
        {
          "indexed": false,
          "internalType": "bool",
          "name": "approved",
          "type": "bool"
        }
      ],
      "name": "ApprovalForAll",
      "type": "event"
    },
    {
      "anonymous": false,
      "inputs": [
        {
          "indexed": true,
          "internalType": "address",
          "name": "previousOwner",
          "type": "address"
        },
        {
          "indexed": true,
          "internalType": "address",
          "name": "newOwner",
          "type": "address"
        }
      ],
      "name": "OwnershipTransferred",
      "type": "event"
    },
    {
      "anonymous": false,
      "inputs": [
        {
          "indexed": true,
          "internalType": "address",
          "name": "from",
          "type": "address"
        },
        {
          "indexed": true,
          "internalType": "address",
          "name": "to",
          "type": "address"
        },
        {
          "indexed": true,
          "internalType": "uint256",
          "name": "tokenId",
          "type": "uint256"
        }
      ],
      "name": "Transfer",
      "type": "event"
    },
    {
      "inputs": [
        {
          "internalType": "address",
          "name": "to",
          "type": "address"
        },
        {
          "internalType": "uint256",
          "name": "tokenId",
          "type": "uint256"
        }
      ],
      "name": "approve",
      "outputs": [],
      "stateMutability": "nonpayable",
      "type": "function"
    },
    {
      "inputs": [
        {
          "internalType": "address",
          "name": "owner",
          "type": "address"
        }
      ],
      "name": "balanceOf",
      "outputs": [
        {
          "internalType": "uint256",
          "name": "",
          "type": "uint256"
        }
      ],
      "stateMutability": "view",
      "type": "function"
    },
    {
      "inputs": [
        {
          "internalType": "uint256",
          "name": "tokenId",
          "type": "uint256"
        }
      ],
      "name": "getApproved",
      "outputs": [
        {
          "internalType": "address",
          "name": "",
          "type": "address"
        }
      ],
      "stateMutability": "view",
      "type": "function"
    },
    {
      "inputs": [
        {
          "internalType": "address",
          "name": "owner",
          "type": "address"
        }
      ],
      "name": "getBalanceNFT",
      "outputs": [
        {
          "components": [
            {
              "internalType": "string",
              "name": "name",
              "type": "string"
            },
            {
              "internalType": "string",
              "name": "symbol",
              "type": "string"
            },
            {
              "internalType": "uint256",
              "name": "balance",
              "type": "uint256"
            }
          ],
          "internalType": "struct TokenERC721.NFTInfo",
          "name": "",
          "type": "tuple"
        }
      ],
      "stateMutability": "view",
      "type": "function"
    },
    {
      "inputs": [
        {
          "internalType": "address",
          "name": "owner",
          "type": "address"
        }
      ],
      "name": "getOwnedTokens",
      "outputs": [
        {
          "internalType": "uint256[]",
          "name": "",
          "type": "uint256[]"
        }
      ],
      "stateMutability": "view",
      "type": "function"
    },
    {
      "inputs": [
        {
          "internalType": "address",
          "name": "owner",
          "type": "address"
        },
        {
          "internalType": "address",
          "name": "operator",
          "type": "address"
        }
      ],
      "name": "isApprovedForAll",
      "outputs": [
        {
          "internalType": "bool",
          "name": "",
          "type": "bool"
        }
      ],
      "stateMutability": "view",
      "type": "function"
    },
    {
      "inputs": [
        {
          "internalType": "address",
          "name": "to",
          "type": "address"
        },
        {
          "internalType": "uint256",
          "name": "NFTId",
          "type": "uint256"
        }
      ],
      "name": "mint",
      "outputs": [],
      "stateMutability": "nonpayable",
      "type": "function"
    },
    {
      "inputs": [],
      "name": "name",
      "outputs": [
        {
          "internalType": "string",
          "name": "",
          "type": "string"
        }
      ],
      "stateMutability": "view",
      "type": "function"
    },
    {
      "inputs": [],
      "name": "owner",
      "outputs": [
        {
          "internalType": "address",
          "name": "",
          "type": "address"
        }
      ],
      "stateMutability": "view",
      "type": "function"
    },
    {
      "inputs": [
        {
          "internalType": "uint256",
          "name": "tokenId",
          "type": "uint256"
        }
      ],
      "name": "ownerOf",
      "outputs": [
        {
          "internalType": "address",
          "name": "",
          "type": "address"
        }
      ],
      "stateMutability": "view",
      "type": "function"
    },
    {
      "inputs": [],
      "name": "renounceOwnership",
      "outputs": [],
      "stateMutability": "nonpayable",
      "type": "function"
    },
    {
      "inputs": [
        {
          "internalType": "address",
          "name": "from",
          "type": "address"
        },
        {
          "internalType": "address",
          "name": "to",
          "type": "address"
        },
        {
          "internalType": "uint256",
          "name": "NFTId",
          "type": "uint256"
        }
      ],
      "name": "safeTransferFrom",
      "outputs": [],
      "stateMutability": "nonpayable",
      "type": "function"
    },
    {
      "inputs": [
        {
          "internalType": "address",
          "name": "from",
          "type": "address"
        },
        {
          "internalType": "address",
          "name": "to",
          "type": "address"
        },
        {
          "internalType": "uint256",
          "name": "tokenId",
          "type": "uint256"
        },
        {
          "internalType": "bytes",
          "name": "data",
          "type": "bytes"
        }
      ],
      "name": "safeTransferFrom",
      "outputs": [],
      "stateMutability": "nonpayable",
      "type": "function"
    },
    {
      "inputs": [
        {
          "internalType": "address",
          "name": "operator",
          "type": "address"
        },
        {
          "internalType": "bool",
          "name": "approved",
          "type": "bool"
        }
      ],
      "name": "setApprovalForAll",
      "outputs": [],
      "stateMutability": "nonpayable",
      "type": "function"
    },
    {
      "inputs": [
        {
          "internalType": "bytes4",
          "name": "interfaceId",
          "type": "bytes4"
        }
      ],
      "name": "supportsInterface",
      "outputs": [
        {
          "internalType": "bool",
          "name": "",
          "type": "bool"
        }
      ],
      "stateMutability": "view",
      "type": "function"
    },
    {
      "inputs": [],
      "name": "symbol",
      "outputs": [
        {
          "internalType": "string",
          "name": "",
          "type": "string"
        }
      ],
      "stateMutability": "view",
      "type": "function"
    },
    {
      "inputs": [
        {
          "internalType": "uint256",
          "name": "tokenId",
          "type": "uint256"
        }
      ],
      "name": "tokenURI",
      "outputs": [
        {
          "internalType": "string",
          "name": "",
          "type": "string"
        }
      ],
      "stateMutability": "view",
      "type": "function"
    },
    {
      "inputs": [
        {
          "internalType": "address",
          "name": "from",
          "type": "address"
        },
        {
          "internalType": "address",
          "name": "to",
          "type": "address"
        },
        {
          "internalType": "uint256",
          "name": "tokenId",
          "type": "uint256"
        }
      ],
      "name": "transferFrom",
      "outputs": [],
      "stateMutability": "nonpayable",
      "type": "function"
    },
    {
      "inputs": [
        {
          "internalType": "address",
          "name": "newOwner",
          "type": "address"
        }
      ],
      "name": "transferOwnership",
      "outputs": [],
      "stateMutability": "nonpayable",
      "type": "function"
    }
  ],
  "bytecode": "0x60806040523462000363576200183f803803806200001d8162000368565b9283398101604082820312620003635781516001600160401b0392908381116200036357826200004f9183016200038e565b906020928382015185811162000363576200006b92016200038e565b9281518181116200034d576000938454916001948584811c9416801562000342575b838510146200032e578190601f94858111620002db575b508390858311600114620002775788926200026b575b5050600019600383901b1c191690851b1785555b8551928311620002575783548481811c911680156200024c575b828210146200023857828111620001f0575b50809183116001146200018a57508394829394926200017e575b5050600019600383901b1c191690821b1790555b60068054336001600160a01b031982168117909255604051926001600160a01b03909116907f8be0079c531659141344cd1fd0a4f28419497f9722a3daafe3b4186f6b6457e09080a361143e9081620004018239f35b01519050388062000114565b90601f198316958486528286209286905b888210620001d85750508385969710620001be575b505050811b01905562000128565b015160001960f88460031b161c19169055388080620001b0565b8087859682949686015181550195019301906200019b565b8486528186208380860160051c8201928487106200022e575b0160051c019085905b82811062000222575050620000fa565b87815501859062000212565b9250819262000209565b634e487b7160e01b86526022600452602486fd5b90607f1690620000e8565b634e487b7160e01b85526041600452602485fd5b015190503880620000ba565b8880528489208894509190601f1984168a5b87828210620002c45750508411620002aa575b505050811b018555620000ce565b015160001960f88460031b161c191690553880806200029c565b8385015186558b9790950194938401930162000289565b9091508780528388208580850160051c82019286861062000324575b918991869594930160051c01915b82811062000315575050620000a4565b8a815585945089910162000305565b92508192620002f7565b634e487b7160e01b87526022600452602487fd5b93607f16936200008d565b634e487b7160e01b600052604160045260246000fd5b600080fd5b6040519190601f01601f191682016001600160401b038111838210176200034d57604052565b919080601f84011215620003635782516001600160401b0381116200034d57602090620003c4601f8201601f1916830162000368565b92818452828287010111620003635760005b818110620003ec57508260009394955001015290565b8581018301518482018401528201620003d656fe6080604081815260048036101561001557600080fd5b600092833560e01c90816301ffc9a714610a7057508063062d49d4146109c457806306fdde03146109a6578063081812fc14610986578063095ea7b31461081957806323b872dd146107f457806340c10f19146106ef57806342842e0e146105875780636352211e1461055657806370a0823114610529578063715018a6146104de5780638da5cb5b146104b557806395d89b4114610484578063a22cb465146103b9578063b88d4fde14610306578063c87b56dd146102ac578063d9d61655146101fc578063e985e9c5146101aa5763f2fde38b146100f457600080fd5b346101a65760203660031901126101a65761010d610adc565b90610116610c0c565b6001600160a01b03918216928315610154575050600680546001600160a01b031981168417909155166000805160206113c98339815191528380a380f35b906020608492519162461bcd60e51b8352820152602660248201527f4f776e61626c653a206e6577206f776e657220697320746865207a65726f206160448201526564647265737360d01b6064820152fd5b8280fd5b5050346101f857806003193601126101f85760ff816020936101ca610adc565b6101d2610af7565b6001600160a01b0391821683526005875283832091168252855220549151911615158152f35b5080fd5b8284346102a957602090816003193601126102a95782906001600160a01b03610223610adc565b16815260078352818120908251808584549182815201908194845286842090845b818110610295575050508161025a910382610bce565b83519485948186019282875251809352850193925b82811061027e57505050500390f35b83518552869550938101939281019260010161026f565b825484529288019260019283019201610244565b80fd5b509190346101f85760203660031901126101f8576102d56102d06103029435611168565b610cdb565b8181516102e181610bb3565b528051916102ee83610bb3565b825251918291602083526020830190610b0d565b0390f35b5090346101a65760803660031901126101a657610321610adc565b9061032a610af7565b6064359360443591906001600160401b0386116103b557366023870112156103b5578501359361036561035c86610bf1565b94519485610bce565b8484528636602487890101116102a9576020866103ad9760246103b29a01838901378601015261039d6103988433610fa4565b610ecb565b6103a883838361106c565b6112a1565b610f80565b80f35b8680fd5b5090346101a657806003193601126101a6576103d3610adc565b9060243591821515809303610480576001600160a01b0316923384146104425750338452600560205280842083855260205280842060ff1981541660ff8416179055519081527f17307eab39ab6107e8899845ad3d59bd9653f200f220920489ca2b5937696c3160203392a380f35b6020606492519162461bcd60e51b8352820152601960248201527822a9219b99189d1030b8383937bb32903a379031b0b63632b960391b6044820152fd5b8480fd5b5050346101f857816003193601126101f857610302906104a2610e11565b9051918291602083526020830190610b0d565b5050346101f857816003193601126101f85760065490516001600160a01b039091168152602090f35b83346102a957806003193601126102a9576104f7610c0c565b600680546001600160a01b0319811690915581906001600160a01b03166000805160206113c98339815191528280a380f35b5050346101f85760203660031901126101f85760209061054f61054a610adc565b610c64565b9051908152f35b5091346102a95760203660031901126102a9575061057660209235610d22565b90516001600160a01b039091168152f35b508290346101f85761059836610b4d565b916105cf6103ad879397516105ac81610bb3565b8781526105bc6103988733610fa4565b6105c7868a8661106c565b8589856112a1565b6001600160a01b039081168552600760205281852095855b8754808210156106dd5785906105fd838b61132c565b929054600393841b1c14610631575050600019811461061e576001016105e7565b634e487b7160e01b875260118652602487fd5b9092939495969891600019918281019081116106ca5790610665610658610680938661132c565b905490871b1c918561132c565b90919082549060031b600019811b9283911b16911916179055565b815480156106b7576103b298995081019261069b848461132c565b81939154921b1b19169055555b1684526007602052832061135a565b634e487b7160e01b895260318a52602489fd5b634e487b7160e01b8a5260118b5260248afd5b505090919293506103b29495506106a8565b508290346101f857826003193601126101f85761070a610adc565b926024359181519461071b86610bb3565b8486526001600160a01b0381169182156107b157506103ad6103b29596856107a39361074f61074983611168565b1561137d565b61075b61074983611168565b858a5260036020908152878b2080546001019055828b5260029052868a2080546001600160a01b0319168717905581868b6000805160206113e98339815191528180a4611185565b84526007602052832061135a565b606490602085519162461bcd60e51b8352820152602060248201527f4552433732313a206d696e7420746f20746865207a65726f20616464726573736044820152fd5b83346102a9576103b261080636610b4d565b916108146103988433610fa4565b61106c565b50346101a657816003193601126101a657610832610adc565b6024359290916001600160a01b039190828061084d87610d22565b169416938085146109395780331490811561091a575b50156108b257848652602052842080546001600160a01b0319168317905561088a83610d22565b167f8c5be1e5ebec7d5bd14f71427d1e84f3dd0314c0f7b2291e5b200ac8c7c3b9258480a480f35b6020608492519162461bcd60e51b8352820152603d60248201527f4552433732313a20617070726f76652063616c6c6572206973206e6f7420746f60448201527f6b656e206f776e6572206f7220617070726f76656420666f7220616c6c0000006064820152fd5b90508652600560205281862033875260205260ff828720541638610863565b506020608492519162461bcd60e51b8352820152602160248201527f4552433732313a20617070726f76616c20746f2063757272656e74206f776e656044820152603960f91b6064820152fd5b5091346102a95760203660031901126102a9575061057660209235610ea4565b5050346101f857816003193601126101f857610302906104a2610d48565b5050346101f85760203660031901126101f85790610a52916109e4610adc565b918180516109f181610b82565b60608152606060208201520152610a65610a09610d48565b92610a1b610a15610e11565b91610c64565b92805194610a2886610b82565b85526020850191825280850193845280519586956020875251606060208801526080870190610b0d565b915190601f198684030190860152610b0d565b905160608301520390f35b925050346101a65760203660031901126101a6573563ffffffff60e01b81168091036101a657602092506380ac58cd60e01b8114908115610acb575b8115610aba575b5015158152f35b6301ffc9a760e01b14905038610ab3565b635b5e139f60e01b81149150610aac565b600435906001600160a01b0382168203610af257565b600080fd5b602435906001600160a01b0382168203610af257565b919082519283825260005b848110610b39575050826000602080949584010152601f8019910116010190565b602081830181015184830182015201610b18565b6060906003190112610af2576001600160a01b03906004358281168103610af257916024359081168103610af2579060443590565b606081019081106001600160401b03821117610b9d57604052565b634e487b7160e01b600052604160045260246000fd5b602081019081106001600160401b03821117610b9d57604052565b601f909101601f19168101906001600160401b03821190821017610b9d57604052565b6001600160401b038111610b9d57601f01601f191660200190565b6006546001600160a01b03163303610c2057565b606460405162461bcd60e51b815260206004820152602060248201527f4f776e61626c653a2063616c6c6572206973206e6f7420746865206f776e65726044820152fd5b6001600160a01b03168015610c8457600052600360205260406000205490565b60405162461bcd60e51b815260206004820152602960248201527f4552433732313a2061646472657373207a65726f206973206e6f7420612076616044820152683634b21037bbb732b960b91b6064820152608490fd5b15610ce257565b60405162461bcd60e51b8152602060048201526018602482015277115490cdcc8c4e881a5b9d985b1a59081d1bdad95b88125160421b6044820152606490fd5b6000908152600260205260409020546001600160a01b0316610d45811515610cdb565b90565b604051906000805490600182811c90808416938415610e07575b6020948584108114610df35783885287949392918115610dd35750600114610d95575b5050610d9392500383610bce565b565b600080805285812095935091905b818310610dbb575050610d9393508201013880610d85565b85548884018501529485019487945091830191610da3565b915050610d9394925060ff191682840152151560051b8201013880610d85565b634e487b7160e01b85526022600452602485fd5b91607f1691610d62565b60405190600060019081549182811c90808416938415610e9a575b6020948584108114610df35783885287949392918115610dd35750600114610e5c575050610d9392500383610bce565b600081815285812095935091905b818310610e82575050610d9393508201013880610d85565b85548884018501529485019487945091830191610e6a565b91607f1691610e2c565b610eb06102d082611168565b6000908152600460205260409020546001600160a01b031690565b15610ed257565b60405162461bcd60e51b815260206004820152602d60248201527f4552433732313a2063616c6c6572206973206e6f7420746f6b656e206f776e6560448201526c1c881bdc88185c1c1c9bdd9959609a1b6064820152608490fd5b60809060208152603260208201527f4552433732313a207472616e7366657220746f206e6f6e20455243373231526560408201527131b2b4bb32b91034b6b83632b6b2b73a32b960711b60608201520190565b15610f8757565b60405162461bcd60e51b815280610fa060048201610f2d565b0390fd5b906001600160a01b038080610fb884610d22565b16931691838314938415610feb575b508315610fd5575b50505090565b610fe191929350610ea4565b1614388080610fcf565b909350600052600560205260406000208260005260205260ff604060002054169238610fc7565b1561101957565b60405162461bcd60e51b815260206004820152602560248201527f4552433732313a207472616e736665722066726f6d20696e636f72726563742060448201526437bbb732b960d91b6064820152608490fd5b906110949161107a84610d22565b6001600160a01b0393918416928492909183168414611012565b1691821561111757816110b1916110aa86610d22565b1614611012565b6000805160206113e9833981519152600084815260046020526040812060018060a01b03199081815416905583825260036020526040822060001981540190558482526040822060018154019055858252600260205284604083209182541617905580a4565b60405162461bcd60e51b8152602060048201526024808201527f4552433732313a207472616e7366657220746f20746865207a65726f206164646044820152637265737360e01b6064820152608490fd5b6000908152600260205260409020546001600160a01b0316151590565b9192600092909190803b15611297576111d3946040518092630a85bd0160e11b9485835233600484015287602484015260448301526080606483015281878160209a8b966084830190610b0d565b03926001600160a01b03165af1849181611257575b50611246575050503d60001461123e573d61120281610bf1565b906112106040519283610bce565b81528091833d92013e5b8051918261123b5760405162461bcd60e51b815280610fa060048201610f2d565b01fd5b50606061121a565b6001600160e01b0319161492509050565b9091508581813d8311611290575b61126f8183610bce565b8101031261048057516001600160e01b0319811681036104805790386111e8565b503d611265565b5050915050600190565b9293600093909291803b15611321579484916112fb9660405180948193630a85bd0160e11b9788845233600485015260018060a01b0380921660248501526044840152608060648401528260209b8c976084830190610b0d565b0393165af18491816112575750611246575050503d60001461123e573d61120281610bf1565b505050915050600190565b80548210156113445760005260206000200190600090565b634e487b7160e01b600052603260045260246000fd5b80549190600160401b831015610b9d5782610665916001610d939501815561132c565b1561138457565b60405162461bcd60e51b815260206004820152601c60248201527b115490cdcc8c4e881d1bdad95b88185b1c9958591e481b5a5b9d195960221b6044820152606490fdfe8be0079c531659141344cd1fd0a4f28419497f9722a3daafe3b4186f6b6457e0ddf252ad1be2c89b69c2b068fc378daa952ba7f163c4a11628f55a4df523b3efa26469706673582212206c301b219dab5e4dba337b74adac4601a298439762d3bf6cd71e557d8bade1f864736f6c63430008110033",
  "linkReferences": {},
  "deployedLinkReferences": {}
}