{
  "_format": "hh-sol-artifact-1",
  "contractName": "TokenERC20",
  "sourceName": "contracts/TokenERC20.sol",
  "abi": [
    {
      "inputs": [
        {
          "internalType": "string",
          "name": "name",
          "type": "string"
        },
        {
          "internalType": "string",
          "name": "symbol",
          "type": "string"
        }
      ],
      "stateMutability": "nonpayable",
      "type": "constructor"
    },
    {
      "anonymous": false,
      "inputs": [
        {
          "indexed": true,
          "internalType": "address",
          "name": "owner",
          "type": "address"
        },
        {
          "indexed": true,
          "internalType": "address",
          "name": "spender",
          "type": "address"
        },
        {
          "indexed": false,
          "internalType": "uint256",
          "name": "value",
          "type": "uint256"
        }
      ],
      "name": "Approval",
      "type": "event"
    },
    {
      "anonymous": false,
      "inputs": [
        {
          "indexed": true,
          "internalType": "address",
          "name": "previousOwner",
          "type": "address"
        },
        {
          "indexed": true,
          "internalType": "address",
          "name": "newOwner",
          "type": "address"
        }
      ],
      "name": "OwnershipTransferred",
      "type": "event"
    },
    {
      "anonymous": false,
      "inputs": [
        {
          "indexed": true,
          "internalType": "address",
          "name": "from",
          "type": "address"
        },
        {
          "indexed": true,
          "internalType": "address",
          "name": "to",
          "type": "address"
        },
        {
          "indexed": false,
          "internalType": "uint256",
          "name": "value",
          "type": "uint256"
        }
      ],
      "name": "Transfer",
      "type": "event"
    },
    {
      "inputs": [
        {
          "internalType": "address",
          "name": "owner",
          "type": "address"
        },
        {
          "internalType": "address",
          "name": "spender",
          "type": "address"
        }
      ],
      "name": "allowance",
      "outputs": [
        {
          "internalType": "uint256",
          "name": "",
          "type": "uint256"
        }
      ],
      "stateMutability": "view",
      "type": "function"
    },
    {
      "inputs": [
        {
          "internalType": "address",
          "name": "spender",
          "type": "address"
        },
        {
          "internalType": "uint256",
          "name": "amount",
          "type": "uint256"
        }
      ],
      "name": "approve",
      "outputs": [
        {
          "internalType": "bool",
          "name": "",
          "type": "bool"
        }
      ],
      "stateMutability": "nonpayable",
      "type": "function"
    },
    {
      "inputs": [
        {
          "internalType": "address",
          "name": "account",
          "type": "address"
        }
      ],
      "name": "balanceOf",
      "outputs": [
        {
          "internalType": "uint256",
          "name": "",
          "type": "uint256"
        }
      ],
      "stateMutability": "view",
      "type": "function"
    },
    {
      "inputs": [],
      "name": "decimals",
      "outputs": [
        {
          "internalType": "uint8",
          "name": "",
          "type": "uint8"
        }
      ],
      "stateMutability": "pure",
      "type": "function"
    },
    {
      "inputs": [
        {
          "internalType": "address",
          "name": "spender",
          "type": "address"
        },
        {
          "internalType": "uint256",
          "name": "subtractedValue",
          "type": "uint256"
        }
      ],
      "name": "decreaseAllowance",
      "outputs": [
        {
          "internalType": "bool",
          "name": "",
          "type": "bool"
        }
      ],
      "stateMutability": "nonpayable",
      "type": "function"
    },
    {
      "inputs": [
        {
          "internalType": "uint256",
          "name": "amount",
          "type": "uint256"
        }
      ],
      "name": "faucet",
      "outputs": [],
      "stateMutability": "nonpayable",
      "type": "function"
    },
    {
      "inputs": [],
      "name": "getContractBalance",
      "outputs": [
        {
          "internalType": "uint256",
          "name": "",
          "type": "uint256"
        }
      ],
      "stateMutability": "view",
      "type": "function"
    },
    {
      "inputs": [
        {
          "internalType": "address",
          "name": "user",
          "type": "address"
        }
      ],
      "name": "getFaucetBalance",
      "outputs": [
        {
          "internalType": "uint256",
          "name": "",
          "type": "uint256"
        }
      ],
      "stateMutability": "view",
      "type": "function"
    },
    {
      "inputs": [
        {
          "internalType": "address",
          "name": "spender",
          "type": "address"
        },
        {
          "internalType": "uint256",
          "name": "addedValue",
          "type": "uint256"
        }
      ],
      "name": "increaseAllowance",
      "outputs": [
        {
          "internalType": "bool",
          "name": "",
          "type": "bool"
        }
      ],
      "stateMutability": "nonpayable",
      "type": "function"
    },
    {
      "inputs": [],
      "name": "mainContract",
      "outputs": [
        {
          "internalType": "address",
          "name": "",
          "type": "address"
        }
      ],
      "stateMutability": "view",
      "type": "function"
    },
    {
      "inputs": [
        {
          "internalType": "address",
          "name": "to",
          "type": "address"
        },
        {
          "internalType": "uint256",
          "name": "amount",
          "type": "uint256"
        }
      ],
      "name": "mint",
      "outputs": [],
      "stateMutability": "nonpayable",
      "type": "function"
    },
    {
      "inputs": [],
      "name": "name",
      "outputs": [
        {
          "internalType": "string",
          "name": "",
          "type": "string"
        }
      ],
      "stateMutability": "view",
      "type": "function"
    },
    {
      "inputs": [],
      "name": "owner",
      "outputs": [
        {
          "internalType": "address",
          "name": "",
          "type": "address"
        }
      ],
      "stateMutability": "view",
      "type": "function"
    },
    {
      "inputs": [],
      "name": "renounceOwnership",
      "outputs": [],
      "stateMutability": "nonpayable",
      "type": "function"
    },
    {
      "inputs": [
        {
          "internalType": "address",
          "name": "_mainContract",
          "type": "address"
        }
      ],
      "name": "setMainContract",
      "outputs": [],
      "stateMutability": "nonpayable",
      "type": "function"
    },
    {
      "inputs": [],
      "name": "symbol",
      "outputs": [
        {
          "internalType": "string",
          "name": "",
          "type": "string"
        }
      ],
      "stateMutability": "view",
      "type": "function"
    },
    {
      "inputs": [],
      "name": "totalSupply",
      "outputs": [
        {
          "internalType": "uint256",
          "name": "",
          "type": "uint256"
        }
      ],
      "stateMutability": "view",
      "type": "function"
    },
    {
      "inputs": [
        {
          "internalType": "address",
          "name": "to",
          "type": "address"
        },
        {
          "internalType": "uint256",
          "name": "amount",
          "type": "uint256"
        }
      ],
      "name": "transfer",
      "outputs": [
        {
          "internalType": "bool",
          "name": "",
          "type": "bool"
        }
      ],
      "stateMutability": "nonpayable",
      "type": "function"
    },
    {
      "inputs": [
        {
          "internalType": "address",
          "name": "from",
          "type": "address"
        },
        {
          "internalType": "address",
          "name": "to",
          "type": "address"
        },
        {
          "internalType": "uint256",
          "name": "amount",
          "type": "uint256"
        }
      ],
      "name": "transferFrom",
      "outputs": [
        {
          "internalType": "bool",
          "name": "",
          "type": "bool"
        }
      ],
      "stateMutability": "nonpayable",
      "type": "function"
    },
    {
      "inputs": [
        {
          "internalType": "address",
          "name": "newOwner",
          "type": "address"
        }
      ],
      "name": "transferOwnership",
      "outputs": [],
      "stateMutability": "nonpayable",
      "type": "function"
    }
  ],
  "bytecode": "0x604060808152346200041757620012f5803803806200001e816200041c565b92833981018282820312620004175781516001600160401b03908181116200041757826200004e91850162000442565b926020928382015183811162000417576200006a920162000442565b92805191808311620003175760038054936001938486811c961680156200040c575b87871014620003f6578190601f96878111620003a0575b50879087831160011462000339576000926200032d575b505060001982841b1c191690841b1781555b8551918211620003175760049586548481811c911680156200030c575b87821014620002f757858111620002ac575b508590858411600114620002415793839491849260009562000235575b50501b92600019911b1c19161783555b60058054336001600160a01b03198216811790925585519291906001600160a01b03167f8be0079c531659141344cd1fd0a4f28419497f9722a3daafe3b4186f6b6457e0600080a33015620001f85750506002546b033b2e3c9fd0803ce800000092838201809211620001e357506000917fddf252ad1be2c89b69c2b068fc378daa952ba7f163c4a11628f55a4df523b3ef9160025530835282815284832084815401905584519384523093a351610e409081620004b58239f35b601190634e487b7160e01b6000525260246000fd5b6064928462461bcd60e51b845283015260248201527f45524332303a206d696e7420746f20746865207a65726f2061646472657373006044820152fd5b01519350388062000118565b9190601f198416928860005284886000209460005b8a8983831062000294575050501062000279575b50505050811b01835562000128565b01519060f884600019921b161c19169055388080806200026a565b86860151895590970196948501948893500162000256565b87600052866000208680860160051c820192898710620002ed575b0160051c019085905b828110620002e0575050620000fb565b60008155018590620002d0565b92508192620002c7565b602288634e487b7160e01b6000525260246000fd5b90607f1690620000e9565b634e487b7160e01b600052604160045260246000fd5b015190503880620000ba565b90869350601f1983169185600052896000209260005b8b82821062000389575050841162000370575b505050811b018155620000cc565b015160001983861b60f8161c1916905538808062000362565b8385015186558a979095019493840193016200034f565b90915083600052876000208780850160051c8201928a8610620003ec575b918891869594930160051c01915b828110620003dc575050620000a3565b60008155859450889101620003cc565b92508192620003be565b634e487b7160e01b600052602260045260246000fd5b95607f16956200008c565b600080fd5b6040519190601f01601f191682016001600160401b038111838210176200031757604052565b919080601f84011215620004175782516001600160401b038111620003175760209062000478601f8201601f191683016200041c565b92818452828287010111620004175760005b818110620004a057508260009394955001015290565b85810183015184820184015282016200048a56fe6080604081815260048036101561001557600080fd5b600092833560e01c90816306fdde031461098557508063095ea7b31461095b57806318160ddd1461093c57806323b872dd14610872578063313ce567146108565780633528bee91461081e57806339509351146107ce5780633ded33bc1461078957806340c10f191461069157806357915897146104c45780636f9fb98a146104a657806370a0823114610479578063715018a61461042e5780638da5cb5b1461040557806395d89b4114610303578063a457c2d71461025c578063a9059cbb1461022b578063d270e7ab14610202578063dd62ed3e146101b55763f2fde38b146100ff57600080fd5b346101b15760203660031901126101b157610118610aa5565b90610121610ad6565b6001600160a01b0391821692831561015f575050600580546001600160a01b03198116841790915516600080516020610dcb8339815191528380a380f35b906020608492519162461bcd60e51b8352820152602660248201527f4f776e61626c653a206e6577206f776e657220697320746865207a65726f206160448201526564647265737360d01b6064820152fd5b8280fd5b5050346101fe57806003193601126101fe57806020926101d3610aa5565b6101db610ac0565b6001600160a01b0391821683526001865283832091168252845220549051908152f35b5080fd5b5050346101fe57816003193601126101fe5760065490516001600160a01b039091168152602090f35b5050346101fe57806003193601126101fe5760209061025561024b610aa5565b6024359033610b6c565b5160018152f35b508234610300578260031936011261030057610276610aa5565b918360243592338152600160205281812060018060a01b03861682526020522054908282106102af576020856102558585038733610cc8565b608490602086519162461bcd60e51b8352820152602560248201527f45524332303a2064656372656173656420616c6c6f77616e63652062656c6f77604482015264207a65726f60d81b6064820152fd5b80fd5b509190346101fe57816003193601126101fe57805190828454600181811c908083169283156103fb575b60209384841081146103e8578388529081156103cc5750600114610394575b505050829003601f01601f19168201926001600160401b03841183851017610381575082918261037d925282610a5c565b0390f35b634e487b7160e01b815260418552602490fd5b919250868652828620918387935b8385106103b8575050505083010138808061034c565b8054888601830152930192849082016103a2565b60ff1916878501525050151560051b840101905038808061034c565b634e487b7160e01b895260228a52602489fd5b91607f169161032d565b5050346101fe57816003193601126101fe5760055490516001600160a01b039091168152602090f35b8334610300578060031936011261030057610447610ad6565b600580546001600160a01b0319811690915581906001600160a01b0316600080516020610dcb8339815191528280a380f35b5050346101fe5760203660031901126101fe5760209061049f61049a610aa5565b610b2e565b9051908152f35b5050346101fe57816003193601126101fe5760209061049f30610b2e565b5090346101b15760208060031936011261068d57823592831561064c5769d3c21bcecceda10000008085116105ff57338652600783526105078585882054610b49565b1161059c57308552848252838386205410610542575090600761053d9261052f853330610b6c565b338652528320918254610b49565b905580f35b915162461bcd60e51b815291820152603060248201527f466175636574206661696c65643a206e6f7420656e6f75676820746f6b656e7360448201526f081a5b881d1a194818dbdb9d1c9858dd60821b6064820152608490fd5b915162461bcd60e51b815291820152603960248201527f466175636574206661696c65643a20757365722068617320616c7265616479206044820152781c995858da1959081d1a19481b585e1a5b5d5b481b1a5b5a5d603a1b6064820152608490fd5b50915162461bcd60e51b815291820152602260248201527f416d6f756e74206d757374206265206c657373207468616e20312e3030302e30604482015261030360f41b6064820152608490fd5b915162461bcd60e51b815291820152601d60248201527f416d6f756e74206d7573742062652067726561746572207468616e20300000006044820152606490fd5b8380fd5b5090346101b157806003193601126101b1576106ab610aa5565b60065460243592916001600160a01b03918216330361074957169283156107075750602082600080516020610deb833981519152926106ed8795600254610b49565b60025585855284835280852082815401905551908152a380f35b6020606492519162461bcd60e51b8352820152601f60248201527f45524332303a206d696e7420746f20746865207a65726f2061646472657373006044820152fd5b825162461bcd60e51b8152602081870152601a60248201527913db9b1e4813585a5b90dbdb9d1c9858dd0818d85b881b5a5b9d60321b6044820152606490fd5b8334610300576020366003190112610300576107a3610aa5565b6107ab610ad6565b600680546001600160a01b0319166001600160a01b039290921691909117905580f35b5050346101fe57806003193601126101fe576102556020926108176107f1610aa5565b338352600186528483206001600160a01b03821684528652918490205460243590610b49565b9033610cc8565b5050346101fe5760203660031901126101fe5760209181906001600160a01b03610846610aa5565b1681526007845220549051908152f35b5050346101fe57816003193601126101fe576020905160128152f35b508290346101fe5760603660031901126101fe5761088e610aa5565b610896610ac0565b91846044359460018060a01b0384168152600160205281812033825260205220549060001982036108d0575b602086610255878787610b6c565b8482106108f957509183916108ee6020969561025595033383610cc8565b9193948193506108c2565b606490602087519162461bcd60e51b8352820152601d60248201527f45524332303a20696e73756666696369656e7420616c6c6f77616e63650000006044820152fd5b5050346101fe57816003193601126101fe576020906002549051908152f35b5050346101fe57806003193601126101fe5760209061025561097b610aa5565b6024359033610cc8565b84915083346101b157826003193601126101b15782600354600181811c90808316928315610a52575b60209384841081146103e857838852908115610a3657506001146109fd57505050829003601f01601f19168201926001600160401b03841183851017610381575082918261037d925282610a5c565b91925060038652828620918387935b838510610a22575050505083010185808061034c565b805488860183015293019284908201610a0c565b60ff1916878501525050151560051b840101905085808061034c565b91607f16916109ae565b6020808252825181830181905290939260005b828110610a9157505060409293506000838284010152601f8019910116010190565b818101860151848201604001528501610a6f565b600435906001600160a01b0382168203610abb57565b600080fd5b602435906001600160a01b0382168203610abb57565b6005546001600160a01b03163303610aea57565b606460405162461bcd60e51b815260206004820152602060248201527f4f776e61626c653a2063616c6c6572206973206e6f7420746865206f776e65726044820152fd5b6001600160a01b031660009081526020819052604090205490565b91908201809211610b5657565b634e487b7160e01b600052601160045260246000fd5b6001600160a01b03908116918215610c755716918215610c2457600082815280602052604081205491808310610bd05760408282600080516020610deb833981519152958760209652828652038282205586815220818154019055604051908152a3565b60405162461bcd60e51b815260206004820152602660248201527f45524332303a207472616e7366657220616d6f756e7420657863656564732062604482015265616c616e636560d01b6064820152608490fd5b60405162461bcd60e51b815260206004820152602360248201527f45524332303a207472616e7366657220746f20746865207a65726f206164647260448201526265737360e81b6064820152608490fd5b60405162461bcd60e51b815260206004820152602560248201527f45524332303a207472616e736665722066726f6d20746865207a65726f206164604482015264647265737360d81b6064820152608490fd5b6001600160a01b03908116918215610d795716918215610d295760207f8c5be1e5ebec7d5bd14f71427d1e84f3dd0314c0f7b2291e5b200ac8c7c3b925918360005260018252604060002085600052825280604060002055604051908152a3565b60405162461bcd60e51b815260206004820152602260248201527f45524332303a20617070726f766520746f20746865207a65726f206164647265604482015261737360f01b6064820152608490fd5b60405162461bcd60e51b8152602060048201526024808201527f45524332303a20617070726f76652066726f6d20746865207a65726f206164646044820152637265737360e01b6064820152608490fdfe8be0079c531659141344cd1fd0a4f28419497f9722a3daafe3b4186f6b6457e0ddf252ad1be2c89b69c2b068fc378daa952ba7f163c4a11628f55a4df523b3efa2646970667358221220827012c135e2ea346e5cb8ad0a09b045b7b1ab705ecc81c17b3336bd7af2f90764736f6c63430008110033",
  "linkReferences": {},
  "deployedLinkReferences": {}
}